{
  "address": "0x973ae30Cb49986E1D3BdCAB4d40B96fEA5baBE84",
  "abi": [
    {
      "inputs": [
        {
          "internalType": "address",
          "name": "_weth",
          "type": "address"
        },
        {
          "internalType": "address",
          "name": "_qlp",
          "type": "address"
        },
        {
          "internalType": "address",
          "name": "_vault",
          "type": "address"
        }
      ],
      "stateMutability": "nonpayable",
      "type": "constructor"
    },
    {
      "anonymous": false,
      "inputs": [
        {
          "indexed": false,
          "internalType": "address",
          "name": "account",
          "type": "address"
        },
        {
          "indexed": false,
          "internalType": "uint256",
          "name": "amount",
          "type": "uint256"
        }
      ],
      "name": "StakeQlp",
      "type": "event"
    },
    {
      "anonymous": false,
      "inputs": [
        {
          "indexed": false,
          "internalType": "address",
          "name": "account",
          "type": "address"
        },
        {
          "indexed": false,
          "internalType": "uint256",
          "name": "amount",
          "type": "uint256"
        }
      ],
      "name": "UnstakeQlp",
      "type": "event"
    },
    {
      "inputs": [
        {
          "internalType": "address",
          "name": "_sender",
          "type": "address"
        }
      ],
      "name": "acceptTransfer",
      "outputs": [],
      "stateMutability": "nonpayable",
      "type": "function"
    },
    {
      "inputs": [
        {
          "internalType": "address",
          "name": "_rewardToken",
          "type": "address"
        },
        {
          "internalType": "bool",
          "name": "withdrawEth",
          "type": "bool"
        }
      ],
      "name": "claim",
      "outputs": [],
      "stateMutability": "nonpayable",
      "type": "function"
    },
    {
      "inputs": [],
      "name": "feeQlpTracker",
      "outputs": [
        {
          "internalType": "address",
          "name": "",
          "type": "address"
        }
      ],
      "stateMutability": "view",
      "type": "function"
    },
    {
      "inputs": [],
      "name": "gov",
      "outputs": [
        {
          "internalType": "address",
          "name": "",
          "type": "address"
        }
      ],
      "stateMutability": "view",
      "type": "function"
    },
    {
      "inputs": [
        {
          "internalType": "bool",
          "name": "_shouldConvertWethToEth",
          "type": "bool"
        },
        {
          "internalType": "bool",
          "name": "_shouldAddIntoQLP",
          "type": "bool"
        }
      ],
      "name": "handleRewards",
      "outputs": [],
      "stateMutability": "nonpayable",
      "type": "function"
    },
    {
      "inputs": [
        {
          "internalType": "address",
          "name": "_feeQlpTracker",
          "type": "address"
        },
        {
          "internalType": "address",
          "name": "_qlpManager",
          "type": "address"
        }
      ],
      "name": "initialize",
      "outputs": [],
      "stateMutability": "nonpayable",
      "type": "function"
    },
    {
      "inputs": [],
      "name": "isInitialized",
      "outputs": [
        {
          "internalType": "bool",
          "name": "",
          "type": "bool"
        }
      ],
      "stateMutability": "view",
      "type": "function"
    },
    {
      "inputs": [
        {
          "internalType": "address",
          "name": "_token",
          "type": "address"
        },
        {
          "internalType": "uint256",
          "name": "_amount",
          "type": "uint256"
        },
        {
          "internalType": "uint256",
          "name": "_minUsdq",
          "type": "uint256"
        },
        {
          "internalType": "uint256",
          "name": "_minQlp",
          "type": "uint256"
        }
      ],
      "name": "mintAndStakeQlp",
      "outputs": [
        {
          "internalType": "uint256",
          "name": "",
          "type": "uint256"
        }
      ],
      "stateMutability": "nonpayable",
      "type": "function"
    },
    {
      "inputs": [
        {
          "internalType": "uint256",
          "name": "_minUsdq",
          "type": "uint256"
        },
        {
          "internalType": "uint256",
          "name": "_minQlp",
          "type": "uint256"
        }
      ],
      "name": "mintAndStakeQlpETH",
      "outputs": [
        {
          "internalType": "uint256",
          "name": "",
          "type": "uint256"
        }
      ],
      "stateMutability": "payable",
      "type": "function"
    },
    {
      "inputs": [
        {
          "internalType": "address",
          "name": "",
          "type": "address"
        }
      ],
      "name": "pendingReceivers",
      "outputs": [
        {
          "internalType": "address",
          "name": "",
          "type": "address"
        }
      ],
      "stateMutability": "view",
      "type": "function"
    },
    {
      "inputs": [],
      "name": "qlp",
      "outputs": [
        {
          "internalType": "address",
          "name": "",
          "type": "address"
        }
      ],
      "stateMutability": "view",
      "type": "function"
    },
    {
      "inputs": [],
      "name": "qlpManager",
      "outputs": [
        {
          "internalType": "address",
          "name": "",
          "type": "address"
        }
      ],
      "stateMutability": "view",
      "type": "function"
    },
    {
      "inputs": [
        {
          "internalType": "address",
          "name": "_gov",
          "type": "address"
        }
      ],
      "name": "setGov",
      "outputs": [],
      "stateMutability": "nonpayable",
      "type": "function"
    },
    {
      "inputs": [
        {
          "internalType": "address",
          "name": "_receiver",
          "type": "address"
        }
      ],
      "name": "signalTransfer",
      "outputs": [],
      "stateMutability": "nonpayable",
      "type": "function"
    },
    {
      "inputs": [
        {
          "internalType": "address",
          "name": "_tokenOut",
          "type": "address"
        },
        {
          "internalType": "uint256",
          "name": "_qlpAmount",
          "type": "uint256"
        },
        {
          "internalType": "uint256",
          "name": "_minOut",
          "type": "uint256"
        },
        {
          "internalType": "address",
          "name": "_receiver",
          "type": "address"
        }
      ],
      "name": "unstakeAndRedeemQlp",
      "outputs": [
        {
          "internalType": "uint256",
          "name": "",
          "type": "uint256"
        }
      ],
      "stateMutability": "nonpayable",
      "type": "function"
    },
    {
      "inputs": [
        {
          "internalType": "uint256",
          "name": "_qlpAmount",
          "type": "uint256"
        },
        {
          "internalType": "uint256",
          "name": "_minOut",
          "type": "uint256"
        },
        {
          "internalType": "address payable",
          "name": "_receiver",
          "type": "address"
        }
      ],
      "name": "unstakeAndRedeemQlpETH",
      "outputs": [
        {
          "internalType": "uint256",
          "name": "",
          "type": "uint256"
        }
      ],
      "stateMutability": "nonpayable",
      "type": "function"
    },
    {
      "inputs": [],
      "name": "vault",
      "outputs": [
        {
          "internalType": "contract IVault",
          "name": "",
          "type": "address"
        }
      ],
      "stateMutability": "view",
      "type": "function"
    },
    {
      "inputs": [],
      "name": "weth",
      "outputs": [
        {
          "internalType": "address",
          "name": "",
          "type": "address"
        }
      ],
      "stateMutability": "view",
      "type": "function"
    },
    {
      "inputs": [
        {
          "internalType": "address",
          "name": "_token",
          "type": "address"
        },
        {
          "internalType": "address",
          "name": "_account",
          "type": "address"
        },
        {
          "internalType": "uint256",
          "name": "_amount",
          "type": "uint256"
        }
      ],
      "name": "withdrawToken",
      "outputs": [],
      "stateMutability": "nonpayable",
      "type": "function"
    },
    {
      "stateMutability": "payable",
      "type": "receive"
    }
  ],
  "transactionHash": "0xb319589df887472ef11b8f0428fb5d84533bb141dcb5457f02707351aa3ecb65",
  "args": [
    "0x4F9A0e7FD2Bf6067db6994CF12E4495Df938E6e9",
    "0xC8E48fD037D1C4232F294b635E74d33A0573265a",
    "0x99B31498B0a1Dae01fc3433e3Cb60F095340935C"
  ],
  "numDeployments": 1,
  "solcInputHash": "46b6ba796414a87d1bf6e0894b0ec801",
  "bytecode": "0x60806040523480156200001157600080fd5b50604051620023bf380380620023bf833981016040819052620000349162000087565b6001600081905580546001600160a01b03199081163317909155600280546001600160a01b03958616908316179055600380549385169382169390931790925560068054919093169116179055620000f3565b6000806000606084860312156200009c578283fd5b8351620000a981620000da565b6020850151909350620000bc81620000da565b6040850151909250620000cf81620000da565b809150509250925092565b6001600160a01b0381168114620000f057600080fd5b50565b6122bc80620001036000396000f3fe6080604052600436106100e85760003560e01c806301e336671461012757806312d43a5114610147578063250e4f5114610172578063392e53cd146101875780633fc8cef3146101a9578063485cc955146101be5780635242abb9146101de5780635eef1693146101f3578063655603a414610213578063680e325e14610233578063765cf73e1461025357806392fd2daf14610273578063cfad57a214610293578063da94c4cc146102b3578063e1b9db89146102d3578063e26aaefa146102f3578063e7cf6c1014610308578063ef9aacfd14610328578063fbfa77cf1461034857610122565b36610122576002546001600160a01b031633146101205760405162461bcd60e51b815260040161011790611e06565b60405180910390fd5b005b600080fd5b34801561013357600080fd5b506101206101423660046119f1565b61035d565b34801561015357600080fd5b5061015c6103a0565b6040516101699190611c6b565b60405180910390f35b34801561017e57600080fd5b5061015c6103af565b34801561019357600080fd5b5061019c6103be565b6040516101699190611d93565b3480156101b557600080fd5b5061015c6103ce565b3480156101ca57600080fd5b506101206101d93660046119b9565b6103dd565b3480156101ea57600080fd5b5061015c610472565b610206610201366004611bf3565b610481565b60405161016991906121ce565b34801561021f57600080fd5b5061012061022e36600461199d565b610548565b34801561023f57600080fd5b5061020661024e366004611a5e565b61074c565b34801561025f57600080fd5b5061020661026e366004611aa7565b6108c7565b34801561027f57600080fd5b5061012061028e366004611a31565b610928565b34801561029f57600080fd5b506101206102ae36600461199d565b610ba7565b3480156102bf57600080fd5b506102066102ce366004611c14565b610bf3565b3480156102df57600080fd5b5061015c6102ee36600461199d565b610de6565b3480156102ff57600080fd5b5061015c610e01565b34801561031457600080fd5b50610120610323366004611bbe565b610e10565b34801561033457600080fd5b5061012061034336600461199d565b6111c7565b34801561035457600080fd5b5061015c61122c565b6001546001600160a01b031633146103875760405162461bcd60e51b815260040161011790612096565b61039b6001600160a01b038416838361123b565b505050565b6001546001600160a01b031681565b6005546001600160a01b031681565b600154600160a01b900460ff1681565b6002546001600160a01b031681565b6001546001600160a01b031633146104075760405162461bcd60e51b815260040161011790612096565b600154600160a01b900460ff16156104315760405162461bcd60e51b815260040161011790611f09565b6001805460ff60a01b1916600160a01b179055600480546001600160a01b039384166001600160a01b03199182161790915560058054929093169116179055565b6004546001600160a01b031681565b6000600260005414156104a65760405162461bcd60e51b815260040161011790612197565b6002600055346104c85760405162461bcd60e51b815260040161011790611e78565b600260009054906101000a90046001600160a01b03166001600160a01b031663d0e30db0346040518263ffffffff1660e01b81526004016000604051808303818588803b15801561051857600080fd5b505af115801561052c573d6000803e3d6000fd5b505050505061053c348484611291565b60016000559392505050565b6002600054141561056b5760405162461bcd60e51b815260040161011790612197565b600260009081556001600160a01b038281168252600760205260409091205433911681146105ab5760405162461bcd60e51b815260040161011790611ffe565b6001600160a01b038216600090815260076020526040902080546001600160a01b03191690556105da81611471565b60048054600354604051637aeceb1f60e11b81526000936001600160a01b039384169363f5d9d63e93610614938993919092169101611cb8565b60206040518083038186803b15801561062c57600080fd5b505afa158015610640573d6000803e3d6000fd5b505050506040513d601f19601f820116820180604052508101906106649190611bdb565b90508015610742576004805460035460405163098bf59d60e01b81526001600160a01b039283169363098bf59d936106a59389939116918791849101611d1f565b600060405180830381600087803b1580156106bf57600080fd5b505af11580156106d3573d6000803e3d6000fd5b505060048054600354604051631e42d69b60e21b81526001600160a01b03928316955063790b5a6c945061070f93899389931691889101611cf5565b600060405180830381600087803b15801561072957600080fd5b505af115801561073d573d6000803e3d6000fd5b505050505b5050600160005550565b6000600260005414156107715760405162461bcd60e51b815260040161011790612197565b6002600055836107935760405162461bcd60e51b815260040161011790611dd1565b6004805460035460405163098bf59d60e01b815233936001600160a01b039384169363098bf59d936107d093879391909216918b91849101611d1f565b600060405180830381600087803b1580156107ea57600080fd5b505af11580156107fe573d6000803e3d6000fd5b50506005546040516371d597ad60e01b8152600093506001600160a01b0390911691506371d597ad9061083d9085908b908b908b908b90600401611d4a565b602060405180830381600087803b15801561085757600080fd5b505af115801561086b573d6000803e3d6000fd5b505050506040513d601f19601f8201168201806040525081019061088f9190611bdb565b905060008051602061229083398151915282876040516108b0929190611d7a565b60405180910390a160016000559695505050505050565b6000600260005414156108ec5760405162461bcd60e51b815260040161011790612197565b60026000558361090e5760405162461bcd60e51b815260040161011790611fc7565b61091a858585856115ac565b600160005595945050505050565b6002600054141561094b5760405162461bcd60e51b815260040161011790612197565b600260005560048054604051632577b51760e21b81526001600160a01b03909116916395ded45c9161097f91869101611c6b565b60206040518083038186803b15801561099757600080fd5b505afa1580156109ab573d6000803e3d6000fd5b505050506040513d601f19601f820116820180604052508101906109cf9190611ba2565b6109eb5760405162461bcd60e51b815260040161011790611e36565b33818015610a0657506002546001600160a01b038481169116145b15610b17576004805460405163f777b81360e01b81526000926001600160a01b039092169163f777b81391610a419186918991309101611cd2565b602060405180830381600087803b158015610a5b57600080fd5b505af1158015610a6f573d6000803e3d6000fd5b505050506040513d601f19601f82011682018060405250810190610a939190611bdb565b90508015610b1157600254604051632e1a7d4d60e01b81526001600160a01b0390911690632e1a7d4d90610acb9084906004016121ce565b600060405180830381600087803b158015610ae557600080fd5b505af1158015610af9573d6000803e3d6000fd5b50610b11925050506001600160a01b038316826116dc565b50610742565b6004805460405163f777b81360e01b81526001600160a01b039091169163f777b81391610b4a9185918891839101611cd2565b602060405180830381600087803b158015610b6457600080fd5b505af1158015610b78573d6000803e3d6000fd5b505050506040513d601f19601f82011682018060405250810190610b9c9190611bdb565b505050600160005550565b6001546001600160a01b03163314610bd15760405162461bcd60e51b815260040161011790612096565b600180546001600160a01b0319166001600160a01b0392909216919091179055565b600060026000541415610c185760405162461bcd60e51b815260040161011790612197565b600260005583610c3a5760405162461bcd60e51b815260040161011790611dd1565b6004805460035460405163098bf59d60e01b815233936001600160a01b039384169363098bf59d93610c7793879391909216918b91849101611d1f565b600060405180830381600087803b158015610c9157600080fd5b505af1158015610ca5573d6000803e3d6000fd5b50506005546002546040516371d597ad60e01b8152600094506001600160a01b0392831693506371d597ad92610ce89287929116908b908b903090600401611d4a565b602060405180830381600087803b158015610d0257600080fd5b505af1158015610d16573d6000803e3d6000fd5b505050506040513d601f19601f82011682018060405250810190610d3a9190611bdb565b600254604051632e1a7d4d60e01b81529192506001600160a01b031690632e1a7d4d90610d6b9084906004016121ce565b600060405180830381600087803b158015610d8557600080fd5b505af1158015610d99573d6000803e3d6000fd5b50610db1925050506001600160a01b038516826116dc565b6000805160206122908339815191528287604051610dd0929190611d7a565b60405180910390a1600160005595945050505050565b6007602052600090815260409020546001600160a01b031681565b6003546001600160a01b031681565b60026000541415610e335760405162461bcd60e51b815260040161011790612197565b6002600055338280610e425750815b156111345760048054604051639e2e602360e01b815260609283926001600160a01b031691639e2e602391610e7b918791309101611cb8565b600060405180830381600087803b158015610e9557600080fd5b505af1158015610ea9573d6000803e3d6000fd5b505050506040513d6000823e601f3d908101601f19168201604052610ed19190810190611ae1565b9150915060005b825181101561112c576000838281518110610eef57fe5b602002602001015190506000838381518110610f0757fe5b60200260200101519050868015610f995750600654604051630daf9c2160e41b81526001600160a01b039091169063daf9c21090610f49908590600401611c6b565b60206040518083038186803b158015610f6157600080fd5b505afa158015610f75573d6000803e3d6000fd5b505050506040513d601f19601f82011682018060405250810190610f999190611ba2565b8015610fa55750600081115b1561106d576002546001600160a01b0383811691161415610fd257610fcc81600080611291565b50611068565b60055460405163095ea7b360e01b81526001600160a01b038481169263095ea7b39261100692909116908590600401611d7a565b602060405180830381600087803b15801561102057600080fd5b505af1158015611034573d6000803e3d6000fd5b505050506040513d601f19601f820116820180604052508101906110589190611ba2565b5061106682826000806115ac565b505b611122565b87801561108757506002546001600160a01b038381169116145b80156110935750600081115b1561110e57600254604051632e1a7d4d60e01b81526001600160a01b0390911690632e1a7d4d906110c89084906004016121ce565b600060405180830381600087803b1580156110e257600080fd5b505af11580156110f6573d6000803e3d6000fd5b50611068925050506001600160a01b038716826116dc565b6111226001600160a01b038316878361123b565b5050600101610ed8565b505050610742565b60048054604051639e2e602360e01b81526001600160a01b0390911691639e2e602391611165918591829101611cb8565b600060405180830381600087803b15801561117f57600080fd5b505af1158015611193573d6000803e3d6000fd5b505050506040513d6000823e601f3d908101601f191682016040526111bb9190810190611ae1565b50505050600160005550565b600260005414156111ea5760405162461bcd60e51b815260040161011790612197565b60026000556111f881611471565b33600090815260076020526040812080546001600160a01b0319166001600160a01b03939093169290921790915560019055565b6006546001600160a01b031681565b61039b8363a9059cbb60e01b848460405160240161125a929190611d7a565b60408051601f198184030181529190526020810180516001600160e01b03166001600160e01b031990931692909217909152611778565b60008084116112b25760405162461bcd60e51b815260040161011790611fc7565b60025460055460405163095ea7b360e01b81526001600160a01b039283169263095ea7b3926112e8929116908890600401611d7a565b602060405180830381600087803b15801561130257600080fd5b505af1158015611316573d6000803e3d6000fd5b505050506040513d601f19601f8201168201806040525081019061133a9190611ba2565b506005546002546040516317eb2a1560e01b815233926000926001600160a01b03918216926317eb2a159261137f9230928892909116908c908c908c90600401611c7f565b602060405180830381600087803b15801561139957600080fd5b505af11580156113ad573d6000803e3d6000fd5b505050506040513d601f19601f820116820180604052508101906113d19190611bdb565b60048054600354604051631e42d69b60e21b81529394506001600160a01b039182169363790b5a6c9361140d9388938493911691889101611cf5565b600060405180830381600087803b15801561142757600080fd5b505af115801561143b573d6000803e3d6000fd5b50505050600080516020612270833981519152828260405161145e929190611d7a565b60405180910390a19150505b9392505050565b6004805460405163a318021760e01b81526001600160a01b039091169163a3180217916114a091859101611c6b565b60206040518083038186803b1580156114b857600080fd5b505afa1580156114cc573d6000803e3d6000fd5b505050506040513d601f19601f820116820180604052508101906114f09190611bdb565b1561150d5760405162461bcd60e51b815260040161011790612042565b6004805460405163cb9bb45f60e01b81526001600160a01b039091169163cb9bb45f9161153c91859101611c6b565b60206040518083038186803b15801561155457600080fd5b505afa158015611568573d6000803e3d6000fd5b505050506040513d601f19601f8201168201806040525081019061158c9190611ba2565b156115a95760405162461bcd60e51b8152600401610117906120c5565b50565b6005546040516317eb2a1560e01b8152600091339183916001600160a01b0316906317eb2a15906115eb90859081908c908c908c908c90600401611c7f565b602060405180830381600087803b15801561160557600080fd5b505af1158015611619573d6000803e3d6000fd5b505050506040513d601f19601f8201168201806040525081019061163d9190611bdb565b60048054600354604051631e42d69b60e21b81529394506001600160a01b039182169363790b5a6c936116799388938493911691889101611cf5565b600060405180830381600087803b15801561169357600080fd5b505af11580156116a7573d6000803e3d6000fd5b5050505060008051602061227083398151915282826040516116ca929190611d7a565b60405180910390a19695505050505050565b804710156116fc5760405162461bcd60e51b815260040161011790611f4a565b6000826001600160a01b03168260405161171590611c68565b60006040518083038185875af1925050503d8060008114611752576040519150601f19603f3d011682016040523d82523d6000602084013e611757565b606091505b505090508061039b5760405162461bcd60e51b815260040161011790611eaf565b60606117cd826040518060400160405280602081526020017f5361666545524332303a206c6f772d6c6576656c2063616c6c206661696c6564815250856001600160a01b03166118079092919063ffffffff16565b80519091501561039b57808060200190518101906117eb9190611ba2565b61039b5760405162461bcd60e51b81526004016101179061214d565b6060611816848460008561181e565b949350505050565b6060824710156118405760405162461bcd60e51b815260040161011790611f81565b611849856118df565b6118655760405162461bcd60e51b815260040161011790612116565b60006060866001600160a01b031685876040516118829190611c4c565b60006040518083038185875af1925050503d80600081146118bf576040519150601f19603f3d011682016040523d82523d6000602084013e6118c4565b606091505b50915091506118d48282866118e5565b979650505050505050565b3b151590565b606083156118f457508161146a565b8251156119045782518084602001fd5b8160405162461bcd60e51b81526004016101179190611d9e565b80516119298161224c565b92915050565b600082601f83011261193f578081fd5b815161195261194d826121fd565b6121d7565b81815291506020808301908481018184028601820187101561197357600080fd5b60005b8481101561199257815184529282019290820190600101611976565b505050505092915050565b6000602082840312156119ae578081fd5b813561146a8161224c565b600080604083850312156119cb578081fd5b82356119d68161224c565b915060208301356119e68161224c565b809150509250929050565b600080600060608486031215611a05578081fd5b8335611a108161224c565b92506020840135611a208161224c565b929592945050506040919091013590565b60008060408385031215611a43578182fd5b8235611a4e8161224c565b915060208301356119e681612261565b60008060008060808587031215611a73578081fd5b8435611a7e8161224c565b935060208501359250604085013591506060850135611a9c8161224c565b939692955090935050565b60008060008060808587031215611abc578384fd5b8435611ac78161224c565b966020860135965060408601359560600135945092505050565b60008060408385031215611af3578182fd5b82516001600160401b0380821115611b09578384fd5b818501915085601f830112611b1c578384fd5b8151611b2a61194d826121fd565b80828252602080830192508086018a828387028901011115611b4a578889fd5b8896505b84871015611b7457611b608b8261191e565b845260019690960195928101928101611b4e565b508801519096509350505080821115611b8b578283fd5b50611b988582860161192f565b9150509250929050565b600060208284031215611bb3578081fd5b815161146a81612261565b60008060408385031215611bd0578182fd5b8235611a4e81612261565b600060208284031215611bec578081fd5b5051919050565b60008060408385031215611c05578182fd5b50508035926020909101359150565b600080600060608486031215611c28578283fd5b83359250602084013591506040840135611c418161224c565b809150509250925092565b60008251611c5e81846020870161221c565b9190910192915050565b90565b6001600160a01b0391909116815260200190565b6001600160a01b03968716815294861660208601529290941660408401526060830152608082019290925260a081019190915260c00190565b6001600160a01b0392831681529116602082015260400190565b6001600160a01b0393841681529183166020830152909116604082015260600190565b6001600160a01b039485168152928416602084015292166040820152606081019190915260800190565b6001600160a01b03948516815292841660208401526040830191909152909116606082015260800190565b6001600160a01b039586168152938516602085015260408401929092526060830152909116608082015260a00190565b6001600160a01b03929092168252602082015260400190565b901515815260200190565b6000602082528251806020840152611dbd81604085016020870161221c565b601f01601f19169190910160400192915050565b6020808252818101527f526577617264526f757465723a20696e76616c6964205f716c70416d6f756e74604082015260600190565b6020808252601690820152752937baba32b91d1034b73b30b634b21039b2b73232b960511b604082015260600190565b60208082526022908201527f526577617264526f757465723a20696e76616c6964205f726577617264546f6b60408201526132b760f11b606082015260800190565b6020808252601f908201527f526577617264526f757465723a20696e76616c6964206d73672e76616c756500604082015260600190565b6020808252603a908201527f416464726573733a20756e61626c6520746f2073656e642076616c75652c20726040820152791958da5c1a595b9d081b585e481a185d99481c995d995c9d195960321b606082015260800190565b60208082526021908201527f526577617264526f757465723a20616c726561647920696e697469616c697a656040820152601960fa1b606082015260800190565b6020808252601d908201527f416464726573733a20696e73756666696369656e742062616c616e6365000000604082015260600190565b60208082526026908201527f416464726573733a20696e73756666696369656e742062616c616e636520666f6040820152651c8818d85b1b60d21b606082015260800190565b6020808252601d908201527f526577617264526f757465723a20696e76616c6964205f616d6f756e74000000604082015260600190565b60208082526024908201527f526577617264526f757465723a207472616e73666572206e6f74207369676e616040820152631b1b195960e21b606082015260800190565b60208082526034908201527f526577617264526f757465723a20666565516c70547261636b65722e6176657260408201527306167655374616b6564416d6f756e7473203e20360641b606082015260800190565b60208082526015908201527423b7bb32b93730b136329d103337b93134b23232b760591b604082015260600190565b60208082526031908201527f526577617264526f757465723a20666565516c70547261636b65722e63756d7560408201527006c617469766552657761726473203e203607c1b606082015260800190565b6020808252601d908201527f416464726573733a2063616c6c20746f206e6f6e2d636f6e7472616374000000604082015260600190565b6020808252602a908201527f5361666545524332303a204552433230206f7065726174696f6e20646964206e6040820152691bdd081cdd58d8d9595960b21b606082015260800190565b6020808252601f908201527f5265656e7472616e637947756172643a207265656e7472616e742063616c6c00604082015260600190565b90815260200190565b6040518181016001600160401b03811182821017156121f557600080fd5b604052919050565b60006001600160401b03821115612212578081fd5b5060209081020190565b60005b8381101561223757818101518382015260200161221f565b83811115612246576000848401525b50505050565b6001600160a01b03811681146115a957600080fd5b80151581146115a957600080fdfefd2fae40e94e7367c3ca9f1734cc2e448991b3a8bdb566b40fb66c58b9a1664a63a0e5a9e69200606700d3f3ee818363ce92b67203090afa355baba12067d7ffa164736f6c634300060c000a",
  "devdoc": {
    "kind": "dev",
    "methods": {},
    "version": 1
  },
  "userdoc": {
    "kind": "user",
    "methods": {},
    "version": 1
  },
  "storageLayout": {
    "storage": [
      {
        "astId": 22661,
        "contract": "contracts/staking/RewardRouter.sol:RewardRouter",
        "label": "_status",
        "offset": 0,
        "slot": "0",
        "type": "t_uint256"
      },
      {
        "astId": 3,
        "contract": "contracts/staking/RewardRouter.sol:RewardRouter",
        "label": "gov",
        "offset": 0,
        "slot": "1",
        "type": "t_address"
      },
      {
        "astId": 34549,
        "contract": "contracts/staking/RewardRouter.sol:RewardRouter",
        "label": "isInitialized",
        "offset": 20,
        "slot": "1",
        "type": "t_bool"
      },
      {
        "astId": 34551,
        "contract": "contracts/staking/RewardRouter.sol:RewardRouter",
        "label": "weth",
        "offset": 0,
        "slot": "2",
        "type": "t_address"
      },
      {
        "astId": 34553,
        "contract": "contracts/staking/RewardRouter.sol:RewardRouter",
        "label": "qlp",
        "offset": 0,
        "slot": "3",
        "type": "t_address"
      },
      {
        "astId": 34555,
        "contract": "contracts/staking/RewardRouter.sol:RewardRouter",
        "label": "feeQlpTracker",
        "offset": 0,
        "slot": "4",
        "type": "t_address"
      },
      {
        "astId": 34557,
        "contract": "contracts/staking/RewardRouter.sol:RewardRouter",
        "label": "qlpManager",
        "offset": 0,
        "slot": "5",
        "type": "t_address"
      },
      {
        "astId": 34559,
        "contract": "contracts/staking/RewardRouter.sol:RewardRouter",
        "label": "vault",
        "offset": 0,
        "slot": "6",
        "type": "t_contract(IVault)18924"
      },
      {
        "astId": 34563,
        "contract": "contracts/staking/RewardRouter.sol:RewardRouter",
        "label": "pendingReceivers",
        "offset": 0,
        "slot": "7",
        "type": "t_mapping(t_address,t_address)"
      }
    ],
    "types": {
      "t_address": {
        "encoding": "inplace",
        "label": "address",
        "numberOfBytes": "20"
      },
      "t_bool": {
        "encoding": "inplace",
        "label": "bool",
        "numberOfBytes": "1"
      },
      "t_contract(IVault)18924": {
        "encoding": "inplace",
        "label": "contract IVault",
        "numberOfBytes": "20"
      },
      "t_mapping(t_address,t_address)": {
        "encoding": "mapping",
        "key": "t_address",
        "label": "mapping(address => address)",
        "numberOfBytes": "32",
        "value": "t_address"
      },
      "t_uint256": {
        "encoding": "inplace",
        "label": "uint256",
        "numberOfBytes": "32"
      }
    }
  }
}